{
  "contractName": "Ledger",
  "abi": [
    {
      "constant": true,
      "inputs": [
        {
          "name": "",
          "type": "uint256"
        }
      ],
      "name": "roots",
      "outputs": [
        {
          "name": "",
          "type": "bool"
        }
      ],
      "payable": false,
      "stateMutability": "view",
      "type": "function",
      "signature": "0xc2b40ae4"
    },
    {
      "constant": true,
      "inputs": [
        {
          "name": "",
          "type": "uint256"
        }
      ],
      "name": "nullifiers",
      "outputs": [
        {
          "name": "",
          "type": "bool"
        }
      ],
      "payable": false,
      "stateMutability": "view",
      "type": "function",
      "signature": "0xd21e82ab"
    },
    {
      "inputs": [],
      "payable": false,
      "stateMutability": "nonpayable",
      "type": "constructor",
      "signature": "constructor"
    },
    {
      "anonymous": false,
      "inputs": [
        {
          "indexed": true,
          "name": "newRecord",
          "type": "uint256"
        },
        {
          "indexed": true,
          "name": "contentHash",
          "type": "bytes32"
        }
      ],
      "name": "TransferHash",
      "type": "event",
      "signature": "0xc350c11b6904ff15cd5676b90728363258b1c6f59706303c47b7759fda149b79"
    },
    {
      "constant": true,
      "inputs": [],
      "name": "GetRoot",
      "outputs": [
        {
          "name": "",
          "type": "uint256"
        }
      ],
      "payable": false,
      "stateMutability": "view",
      "type": "function",
      "signature": "0x3d5d8745"
    },
    {
      "constant": true,
      "inputs": [
        {
          "name": "nullifier",
          "type": "uint256"
        }
      ],
      "name": "IsSpent",
      "outputs": [
        {
          "name": "",
          "type": "bool"
        }
      ],
      "payable": false,
      "stateMutability": "view",
      "type": "function",
      "signature": "0x39167534"
    },
    {
      "constant": true,
      "inputs": [],
      "name": "GetExtHash",
      "outputs": [
        {
          "name": "",
          "type": "uint256"
        }
      ],
      "payable": false,
      "stateMutability": "view",
      "type": "function",
      "signature": "0x08037ad2"
    },
    {
      "constant": false,
      "inputs": [
        {
          "name": "serialNumbers",
          "type": "uint256[]"
        },
        {
          "name": "newRecords",
          "type": "uint256[]"
        },
        {
          "name": "memo",
          "type": "bytes32[]"
        },
        {
          "name": "in_root",
          "type": "uint256"
        },
        {
          "name": "in_proof",
          "type": "uint256[8]"
        }
      ],
      "name": "ApproveTransaction",
      "outputs": [
        {
          "name": "",
          "type": "bool"
        }
      ],
      "payable": false,
      "stateMutability": "nonpayable",
      "type": "function",
      "signature": "0x5549f30f"
    },
    {
      "constant": true,
      "inputs": [
        {
          "name": "serialNumbers",
          "type": "uint256[]"
        },
        {
          "name": "newRecords",
          "type": "uint256[]"
        },
        {
          "name": "memo",
          "type": "bytes32[]"
        },
        {
          "name": "in_root",
          "type": "uint256"
        },
        {
          "name": "proof",
          "type": "uint256[8]"
        }
      ],
      "name": "VerifyProof",
      "outputs": [
        {
          "name": "",
          "type": "bool"
        }
      ],
      "payable": false,
      "stateMutability": "view",
      "type": "function",
      "signature": "0x07f7c56d"
    },
    {
      "constant": true,
      "inputs": [
        {
          "name": "serialNumbers",
          "type": "uint256[]"
        },
        {
          "name": "newRecords",
          "type": "uint256[]"
        },
        {
          "name": "memo",
          "type": "bytes32[]"
        },
        {
          "name": "in_root",
          "type": "uint256"
        }
      ],
      "name": "HashPublicInputs",
      "outputs": [
        {
          "name": "",
          "type": "uint256"
        }
      ],
      "payable": false,
      "stateMutability": "pure",
      "type": "function",
      "signature": "0xd78e578c"
    },
    {
      "constant": true,
      "inputs": [],
      "name": "GetVerifyingKey",
      "outputs": [
        {
          "name": "out_vk",
          "type": "uint256[14]"
        },
        {
          "name": "out_gammaABC",
          "type": "uint256[]"
        }
      ],
      "payable": false,
      "stateMutability": "view",
      "type": "function",
      "signature": "0xf299d791"
    },
    {
      "constant": false,
      "inputs": [
        {
          "name": "in_vk",
          "type": "uint256[14]"
        },
        {
          "name": "in_gammaABC",
          "type": "uint256[]"
        }
      ],
      "name": "SetVerifyingKey",
      "outputs": [],
      "payable": false,
      "stateMutability": "nonpayable",
      "type": "function",
      "signature": "0x47269c8d"
    }
  ],
  "bytecode": "0x60806040523480156200001157600080fd5b506200002d600162000035640100000000026401000000009004565b505062000d1e565b6000806200005c8360116200009464010000000002620015c6179091906401000000009004565b8092508193505050600180600084815260200190815260200160002060006101000a81548160ff021916908315150217905550915091565b60008060008314151515620000a857600080fd5b620000b262000cfa565b620000cc8162000158640100000000026401000000009004565b60008560000154905060016320000000038114151515620000ec57600080fd5b84866002016000601e811015156200010057fe5b63200000000201826320000000811015156200011857fe5b018190555060006200013a8784620007ec640100000000026401000000009004565b90506001820187600001819055508082945094505050509250929050565b7e54b679342dc72db7dada5f1e059c89cdd0e248dfd48b93fbd819469fdddab2816000601d811015156200018857fe5b6020020181815250507f15616c4d9255be862e74568bec02555a2ec44aca0c35b6654b492d764dbaa4de816001601d81101515620001c257fe5b6020020181815250507f288005cad3274b9dbabda48cabd68247fd9dbfeaaf44befae372d3aa29a2222f816002601d81101515620001fc57fe5b6020020181815250507f0e95e36069b5a4ec39d0d317ae9b3659cb7259fa6977fd4d81fae34d91885e7b816003601d811015156200023657fe5b6020020181815250507f3005a039bb02066ec8f3bbce1259cfbc68c84bc5adbf353a3338c6ef1495c666816004601d811015156200027057fe5b6020020181815250507f16d6b88b43188dae6501f224a9fa48d14fc1c67ce846dabfb24a94a6f23aa312816005601d81101515620002aa57fe5b6020020181815250507f269db736b9c3dcb23f263ed57476a620dd607eb4f08c82bc5a40baf11c2e2b93816006601d81101515620002e457fe5b6020020181815250507f29be46ef2cd66613f7bece37644ec4e5cd57ae30c3c1028312fa3a1d50005212816007601d811015156200031e57fe5b6020020181815250507f2fb65d8cfc2d7b52e0dd83a719f7ee81cedd92f748bdfebeddcda7ec18e2ab26816008601d811015156200035857fe5b6020020181815250507f1b3ac839413221cfb6955b7822ef98fa4dfb42b0221044ace6c6272a3956a7b6816009601d811015156200039257fe5b6020020181815250507f29cc155784315664174105985ee453015a0a8c5d2dd4593a8300463b52fb6ade81600a601d81101515620003cc57fe5b6020020181815250507f1c575b8e067a3b91febbe1dda3737835804245e9858c47ae26fff4189a4111f981600b601d811015156200040657fe5b6020020181815250507f123af492faf15272031d5e6625172effdfdcf365098567bdcba69d4be38a1a5281600c601d811015156200044057fe5b6020020181815250507f257b17ef869450bf306b6cea7449d42b6838fea192f60eefbf5927765d5bf75181600d601d811015156200047a57fe5b6020020181815250507f2ac5f23fa9f80eb16660ed46597a663beae42cb4e0fe52f1b6eec9439e90b5de81600e601d81101515620004b457fe5b6020020181815250507f20073c3de8ab30d68500a004a4e65c6ab4790d2490485cc6ca556409edab4f6381600f601d81101515620004ee57fe5b6020020181815250507f1899efd956f09cbc6957ecd6439e60bef70fed8c2f79a40dba1fb6fdac603891816010601d811015156200052857fe5b6020020181815250507f1b0318839e1c11019a80a60d706e95734bfbf19847d96c62a9edd3e40eda6233816011601d811015156200056257fe5b6020020181815250507f0198a6d7d2116040005fc9d8e52c1f8aa716a2a89fa928e80adab5c9e67c8a00816012601d811015156200059c57fe5b6020020181815250507f216b23e7665eec6f9281a499a500becdd087c180b0530e9e2612d0b2c666b48f816013601d81101515620005d657fe5b6020020181815250507f196a11f69da3f88d41f2866d3e33e5222ceb2ac37495e863a8c7cc4ad6187490816014601d811015156200061057fe5b6020020181815250507f254af2fb95e5c3c653ca1924988e6bd51f551ccec30d2bb63ca1b474bb942a12816015601d811015156200064a57fe5b6020020181815250507f042a5f4566c16e6a9fb2888035238960f42549779d294db188d0f7b0027acace816016601d811015156200068457fe5b6020020181815250507f205fd580902c32fc11dc166960fe4d684eba95a1668d491173e8e7802f3b125b816017601d81101515620006be57fe5b6020020181815250507f04464227c9008591d174db5aadbf5c0e975a96c9b4870fd116dd6963ca5b8e5e816018601d81101515620006f857fe5b6020020181815250507f101bf6e8dfa32916a68f5387b592d81c7e2dd863f1a18436f5fd7b002121a8c3816019601d811015156200073257fe5b6020020181815250507f256f437c488ab1f6a7c4822d10200b0fcb40db6119f392e96af74923e063e67a81601a601d811015156200076c57fe5b6020020181815250507f249e0fc1984d1ffe2a0303977102ccf091183d356ab31b22a08ef4c1e353d2e081601b601d81101515620007a657fe5b6020020181815250507f0d591031e187db8db2cd240e9eb6ee7ada1207535795abb69f8a7914a7e35fbc81601c601d81101515620007e057fe5b60200201818152505050565b6000808360000154905060008060008090505b601d811015620009a65760006002858115156200081857fe5b04905060006002868115156200082a57fe5b061415620008b5578760020182601e811015156200084457fe5b63200000000201856320000000811015156200085c57fe5b01549350620008ad82600187018a60020185601e811015156200087b57fe5b63200000000201600189016320000000811015156200089657fe5b0154620009e0640100000000026401000000009004565b925062000933565b6200090282600187038a60020185601e81101515620008d057fe5b6320000000020160018903632000000081101515620008eb57fe5b0154620009e0640100000000026401000000009004565b93508760020182601e811015156200091657fe5b63200000000201856320000000811015156200092e57fe5b015492505b6200096284848985601d811015156200094857fe5b602002015162000b5e640100000000026401000000009004565b8860020160018401601e811015156200097757fe5b63200000000201826320000000811015156200098f57fe5b0181905550809450508080600101915050620007ff565b5085600201601d601e81101515620009ba57fe5b632000000002016000632000000081101515620009d357fe5b0154935050505092915050565b60008082141562000b545762000a0962000cd26401000000000262002155176401000000009004565b60028585604051602001808361ffff1661ffff167e01000000000000000000000000000000000000000000000000000000000000028152600201827dffffffffffffffffffffffffffffffffffffffffffffffffffffffffffff167dffffffffffffffffffffffffffffffffffffffffffffffffffffffffffff1662010000028152601e01925050506040516020818303038152906040526040518082805190602001908083835b60208310151562000ad8578051825260208201915060208101905060208303925062000ab1565b6001836020036101000a038019825116818451168082178552505050505050905001915050602060405180830381855afa15801562000b1b573d6000803e3d6000fd5b5050506040513d602081101562000b3157600080fd5b81019080805190602001909291905050506001900481151562000b5057fe5b0691505b8190509392505050565b60006060600260405190808252806020026020018201604052801562000b935781602001602082028038833980820191505090505b5090508481600081518110151562000ba757fe5b90602001906020020181815250508381600181518110151562000bc657fe5b906020019060200201818152505073__MiMC__________________________________630fa16e3882856040518363ffffffff167c01000000000000000000000000000000000000000000000000000000000281526004018080602001838152602001828103825284818151815260200191508051906020019060200280838360005b8381101562000c6657808201518184015260208101905062000c49565b50505050905001935050505060206040518083038186803b15801562000c8b57600080fd5b505af415801562000ca0573d6000803e3d6000fd5b505050506040513d602081101562000cb757600080fd5b81019080805190602001909291905050509150509392505050565b60007f30644e72e131a029b85045b68181585d2833e84879b9709143e1f593f0000001905090565b6103a060405190810160405280601d90602082028038833980820191505090505090565b6122a38062000d2e6000396000f3fe6080604052600436106100a4576000357c0100000000000000000000000000000000000000000000000000000000900463ffffffff16806307f7c56d146100a957806308037ad2146102fb57806339167534146103265780633d5d87451461037957806347269c8d146103a45780635549f30f146104ac578063c2b40ae4146106fe578063d21e82ab14610751578063d78e578c146107a4578063f299d791146109af575b600080fd5b3480156100b557600080fd5b506102e160048036036101808110156100cd57600080fd5b81019080803590602001906401000000008111156100ea57600080fd5b8201836020820111156100fc57600080fd5b8035906020019184602083028401116401000000008311171561011e57600080fd5b919080806020026020016040519081016040528093929190818152602001838360200280828437600081840152601f19601f8201169050808301925050505050505091929192908035906020019064010000000081111561017e57600080fd5b82018360208201111561019057600080fd5b803590602001918460208302840111640100000000831117156101b257600080fd5b919080806020026020016040519081016040528093929190818152602001838360200280828437600081840152601f19601f8201169050808301925050505050505091929192908035906020019064010000000081111561021257600080fd5b82018360208201111561022457600080fd5b8035906020019184602083028401116401000000008311171561024657600080fd5b919080806020026020016040519081016040528093929190818152602001838360200280828437600081840152601f19601f820116905080830192505050505050509192919290803590602001909291908061010001906008806020026040519081016040528092919082600860200280828437600081840152601f19601f8201169050808301925050505050509192919290505050610a4a565b604051808215151515815260200191505060405180910390f35b34801561030757600080fd5b50610310610ad4565b6040518082815260200191505060405180910390f35b34801561033257600080fd5b5061035f6004803603602081101561034957600080fd5b8101908080359060200190929190505050610cc1565b604051808215151515815260200191505060405180910390f35b34801561038557600080fd5b5061038e610cea565b6040518082815260200191505060405180910390f35b3480156103b057600080fd5b506104aa60048036036101e08110156103c857600080fd5b81019080806101c00190600e806020026040519081016040528092919082600e60200280828437600081840152601f19601f82011690508083019250505050505091929192908035906020019064010000000081111561042757600080fd5b82018360208201111561043957600080fd5b8035906020019184602083028401116401000000008311171561045b57600080fd5b919080806020026020016040519081016040528093929190818152602001838360200280828437600081840152601f19601f820116905080830192505050505050509192919290505050610cfb565b005b3480156104b857600080fd5b506106e460048036036101808110156104d057600080fd5b81019080803590602001906401000000008111156104ed57600080fd5b8201836020820111156104ff57600080fd5b8035906020019184602083028401116401000000008311171561052157600080fd5b919080806020026020016040519081016040528093929190818152602001838360200280828437600081840152601f19601f8201169050808301925050505050505091929192908035906020019064010000000081111561058157600080fd5b82018360208201111561059357600080fd5b803590602001918460208302840111640100000000831117156105b557600080fd5b919080806020026020016040519081016040528093929190818152602001838360200280828437600081840152601f19601f8201169050808301925050505050505091929192908035906020019064010000000081111561061557600080fd5b82018360208201111561062757600080fd5b8035906020019184602083028401116401000000008311171561064957600080fd5b919080806020026020016040519081016040528093929190818152602001838360200280828437600081840152601f19601f820116905080830192505050505050509192919290803590602001909291908061010001906008806020026040519081016040528092919082600860200280828437600081840152601f19601f8201169050808301925050505050509192919290505050610d28565b604051808215151515815260200191505060405180910390f35b34801561070a57600080fd5b506107376004803603602081101561072157600080fd5b81019080803590602001909291905050506111fb565b604051808215151515815260200191505060405180910390f35b34801561075d57600080fd5b5061078a6004803603602081101561077457600080fd5b810190808035906020019092919050505061121b565b604051808215151515815260200191505060405180910390f35b3480156107b057600080fd5b50610999600480360360808110156107c757600080fd5b81019080803590602001906401000000008111156107e457600080fd5b8201836020820111156107f657600080fd5b8035906020019184602083028401116401000000008311171561081857600080fd5b919080806020026020016040519081016040528093929190818152602001838360200280828437600081840152601f19601f8201169050808301925050505050505091929192908035906020019064010000000081111561087857600080fd5b82018360208201111561088a57600080fd5b803590602001918460208302840111640100000000831117156108ac57600080fd5b919080806020026020016040519081016040528093929190818152602001838360200280828437600081840152601f19601f8201169050808301925050505050505091929192908035906020019064010000000081111561090c57600080fd5b82018360208201111561091e57600080fd5b8035906020019184602083028401116401000000008311171561094057600080fd5b919080806020026020016040519081016040528093929190818152602001838360200280828437600081840152601f19601f8201169050808301925050505050505091929192908035906020019092919050505061123b565b6040518082815260200191505060405180910390f35b3480156109bb57600080fd5b506109c461149b565b6040518083600e60200280838360005b838110156109ef5780820151818401526020810190506109d4565b5050505090500180602001828103825283818151815260200191508051906020019060200280838360005b83811015610a35578082015181840152602081019050610a1a565b50505050905001935050505060405180910390f35b600060606001604051908082528060200260200182016040528015610a7e5781602001602082028038833980820191505090505b509050610a8d8787878761123b565b816000815181101515610a9c57fe5b9060200190602002018181525050610ab261217d565b6060610abc61149b565b80925081935050506001935050505095945050505050565b600073__Verifier______________________________63daad1e636040518163ffffffff167c010000000000000000000000000000000000000000000000000000000002815260040160206040518083038186803b158015610b3657600080fd5b505af4158015610b4a573d6000803e3d6000fd5b505050506040513d6020811015610b6057600080fd5b810190808051906020019092919050505060023033604051602001808373ffffffffffffffffffffffffffffffffffffffff1673ffffffffffffffffffffffffffffffffffffffff166c010000000000000000000000000281526014018273ffffffffffffffffffffffffffffffffffffffff1673ffffffffffffffffffffffffffffffffffffffff166c01000000000000000000000000028152601401925050506040516020818303038152906040526040518082805190602001908083835b602083101515610c465780518252602082019150602081019050602083039250610c21565b6001836020036101000a038019825116818451168082178552505050505050905001915050602060405180830381855afa158015610c88573d6000803e3d6000fd5b5050506040513d6020811015610c9d57600080fd5b810190808051906020019092919050505060019004811515610cbb57fe5b06905090565b600080600083815260200190815260200160002060009054906101000a900460ff169050919050565b6000610cf66011611542565b905090565b81600290600e610d0c9291906121a1565b508060109080519060200190610d239291906121e1565b505050565b6000808551111515610dc8576040517f08c379a00000000000000000000000000000000000000000000000000000000081526004018080602001828103825260228152602001807f6e65775265636f7264206c6973742073686f756c64206e6f7420626520656d7081526020017f747900000000000000000000000000000000000000000000000000000000000081525060400191505060405180910390fd5b83518551141515610e67576040517f08c379a00000000000000000000000000000000000000000000000000000000081526004018080602001828103825260298152602001807f4c656e677468206f66206e6577207265636f72647320616e64206d656d6f206d81526020017f757374206d61746368000000000000000000000000000000000000000000000081525060400191505060405180910390fd5b60008651111515610f06576040517f08c379a00000000000000000000000000000000000000000000000000000000081526004018080602001828103825260218152602001807f73657269616c206e756d6265722073686f756c64206e6f7420626520656d707481526020017f790000000000000000000000000000000000000000000000000000000000000081525060400191505060405180910390fd5b6001600084815260200190815260200160002060009054906101000a900460ff161515610fc1576040517f08c379a00000000000000000000000000000000000000000000000000000000081526004018080602001828103825260238152602001807f4d7573742073706563696679206b6e6f776e206d65726b6c652074726565207281526020017f6f6f74000000000000000000000000000000000000000000000000000000000081525060400191505060405180910390fd5b60008090505b86518110156110cb576000808883815181101515610fe157fe5b90602001906020020151815260200190815260200160002060009054906101000a900460ff1615151561107c576040517f08c379a00000000000000000000000000000000000000000000000000000000081526004018080602001828103825260138152602001807f43616e6e6f7420646f75626c652d7370656e640000000000000000000000000081525060200191505060405180910390fd5b6001600080898481518110151561108f57fe5b90602001906020020151815260200190815260200160002060006101000a81548160ff0219169083151502179055508080600101915050610fc7565b5060006110db8787878787610a4a565b9050801515611152576040517f08c379a000000000000000000000000000000000000000000000000000000000815260040180806020018281038252600e8152602001807f50726f6f6620696e76616c69642100000000000000000000000000000000000081525060200191505060405180910390fd5b60008090505b86518110156111ec57611181878281518110151561117257fe5b90602001906020020151611577565b5050858181518110151561119157fe5b9060200190602002015187828151811015156111a957fe5b906020019060200201517fc350c11b6904ff15cd5676b90728363258b1c6f59706303c47b7759fda149b7960405160405180910390a38080600101915050611158565b50600191505095945050505050565b60016020528060005260406000206000915054906101000a900460ff1681565b60006020528060005260406000206000915054906101000a900460ff1681565b6000806001845186518851010101905060608160405190808252806020026020018201604052801561127c5781602001602082028038833980820191505090505b50905060008090505b87518110156112cf57878181518110151561129c57fe5b9060200190602002015182828151811015156112b457fe5b90602001906020020181815250508080600101915050611285565b5060008751905060008090505b87518110156113285787818151811015156112f357fe5b906020019060200201518383830181518110151561130d57fe5b906020019060200201818152505080806001019150506112dc565b508651885101905060008090505b865181101561138657868181518110151561134d57fe5b90602001906020020151600190048383830181518110151561136b57fe5b90602001906020020181815250508080600101915050611336565b5084826001850381518110151561139957fe5b906020019060200201818152505073__MiMC__________________________________6377d4ef3d836040518263ffffffff167c01000000000000000000000000000000000000000000000000000000000281526004018080602001828103825283818151815260200191508051906020019060200280838360005b83811015611430578082015181840152602081019050611415565b505050509050019250505060206040518083038186803b15801561145357600080fd5b505af4158015611467573d6000803e3d6000fd5b505050506040513d602081101561147d57600080fd5b81019080805190602001909291905050509350505050949350505050565b6114a361217d565b60606002601081600e806020026040519081016040528092919082600e80156114e1576020028201915b8154815260200190600101908083116114cd575b505050505091508080548060200260200160405190810160405280929190818152602001828054801561153357602002820191906000526020600020905b81548152602001906001019080831161151f575b50505050509050915091509091565b600081600201601d601e8110151561155657fe5b63200000000201600063200000008110151561156e57fe5b01549050919050565b60008061158e8360116115c690919063ffffffff16565b8092508193505050600180600084815260200190815260200160002060006101000a81548160ff021916908315150217905550915091565b600080600083141515156115d957600080fd5b6115e161222e565b6115ea81611662565b6000856000015490506001632000000003811415151561160957600080fd5b84866002016000601e8110151561161c57fe5b632000000002018263200000008110151561163357fe5b018190555060006116448784611cd9565b90506001820187600001819055508082945094505050509250929050565b7e54b679342dc72db7dada5f1e059c89cdd0e248dfd48b93fbd819469fdddab2816000601d8110151561169157fe5b6020020181815250507f15616c4d9255be862e74568bec02555a2ec44aca0c35b6654b492d764dbaa4de816001601d811015156116ca57fe5b6020020181815250507f288005cad3274b9dbabda48cabd68247fd9dbfeaaf44befae372d3aa29a2222f816002601d8110151561170357fe5b6020020181815250507f0e95e36069b5a4ec39d0d317ae9b3659cb7259fa6977fd4d81fae34d91885e7b816003601d8110151561173c57fe5b6020020181815250507f3005a039bb02066ec8f3bbce1259cfbc68c84bc5adbf353a3338c6ef1495c666816004601d8110151561177557fe5b6020020181815250507f16d6b88b43188dae6501f224a9fa48d14fc1c67ce846dabfb24a94a6f23aa312816005601d811015156117ae57fe5b6020020181815250507f269db736b9c3dcb23f263ed57476a620dd607eb4f08c82bc5a40baf11c2e2b93816006601d811015156117e757fe5b6020020181815250507f29be46ef2cd66613f7bece37644ec4e5cd57ae30c3c1028312fa3a1d50005212816007601d8110151561182057fe5b6020020181815250507f2fb65d8cfc2d7b52e0dd83a719f7ee81cedd92f748bdfebeddcda7ec18e2ab26816008601d8110151561185957fe5b6020020181815250507f1b3ac839413221cfb6955b7822ef98fa4dfb42b0221044ace6c6272a3956a7b6816009601d8110151561189257fe5b6020020181815250507f29cc155784315664174105985ee453015a0a8c5d2dd4593a8300463b52fb6ade81600a601d811015156118cb57fe5b6020020181815250507f1c575b8e067a3b91febbe1dda3737835804245e9858c47ae26fff4189a4111f981600b601d8110151561190457fe5b6020020181815250507f123af492faf15272031d5e6625172effdfdcf365098567bdcba69d4be38a1a5281600c601d8110151561193d57fe5b6020020181815250507f257b17ef869450bf306b6cea7449d42b6838fea192f60eefbf5927765d5bf75181600d601d8110151561197657fe5b6020020181815250507f2ac5f23fa9f80eb16660ed46597a663beae42cb4e0fe52f1b6eec9439e90b5de81600e601d811015156119af57fe5b6020020181815250507f20073c3de8ab30d68500a004a4e65c6ab4790d2490485cc6ca556409edab4f6381600f601d811015156119e857fe5b6020020181815250507f1899efd956f09cbc6957ecd6439e60bef70fed8c2f79a40dba1fb6fdac603891816010601d81101515611a2157fe5b6020020181815250507f1b0318839e1c11019a80a60d706e95734bfbf19847d96c62a9edd3e40eda6233816011601d81101515611a5a57fe5b6020020181815250507f0198a6d7d2116040005fc9d8e52c1f8aa716a2a89fa928e80adab5c9e67c8a00816012601d81101515611a9357fe5b6020020181815250507f216b23e7665eec6f9281a499a500becdd087c180b0530e9e2612d0b2c666b48f816013601d81101515611acc57fe5b6020020181815250507f196a11f69da3f88d41f2866d3e33e5222ceb2ac37495e863a8c7cc4ad6187490816014601d81101515611b0557fe5b6020020181815250507f254af2fb95e5c3c653ca1924988e6bd51f551ccec30d2bb63ca1b474bb942a12816015601d81101515611b3e57fe5b6020020181815250507f042a5f4566c16e6a9fb2888035238960f42549779d294db188d0f7b0027acace816016601d81101515611b7757fe5b6020020181815250507f205fd580902c32fc11dc166960fe4d684eba95a1668d491173e8e7802f3b125b816017601d81101515611bb057fe5b6020020181815250507f04464227c9008591d174db5aadbf5c0e975a96c9b4870fd116dd6963ca5b8e5e816018601d81101515611be957fe5b6020020181815250507f101bf6e8dfa32916a68f5387b592d81c7e2dd863f1a18436f5fd7b002121a8c3816019601d81101515611c2257fe5b6020020181815250507f256f437c488ab1f6a7c4822d10200b0fcb40db6119f392e96af74923e063e67a81601a601d81101515611c5b57fe5b6020020181815250507f249e0fc1984d1ffe2a0303977102ccf091183d356ab31b22a08ef4c1e353d2e081601b601d81101515611c9457fe5b6020020181815250507f0d591031e187db8db2cd240e9eb6ee7ada1207535795abb69f8a7914a7e35fbc81601c601d81101515611ccd57fe5b60200201818152505050565b6000808360000154905060008060008090505b601d811015611e4f576000600285811515611d0357fe5b0490506000600286811515611d1457fe5b061415611d88578760020182601e81101515611d2c57fe5b6320000000020185632000000081101515611d4357fe5b01549350611d8182600187018a60020185601e81101515611d6057fe5b6320000000020160018901632000000081101515611d7a57fe5b0154611e87565b9250611df1565b611dc282600187038a60020185601e81101515611da157fe5b6320000000020160018903632000000081101515611dbb57fe5b0154611e87565b93508760020182601e81101515611dd557fe5b6320000000020185632000000081101515611dec57fe5b015492505b611e0e84848985601d81101515611e0457fe5b6020020151611fe9565b8860020160018401601e81101515611e2257fe5b6320000000020182632000000081101515611e3957fe5b0181905550809450508080600101915050611cec565b5085600201601d601e81101515611e6257fe5b632000000002016000632000000081101515611e7a57fe5b0154935050505092915050565b600080821415611fdf57611e99612155565b60028585604051602001808361ffff1661ffff167e01000000000000000000000000000000000000000000000000000000000000028152600201827dffffffffffffffffffffffffffffffffffffffffffffffffffffffffffff167dffffffffffffffffffffffffffffffffffffffffffffffffffffffffffff1662010000028152601e01925050506040516020818303038152906040526040518082805190602001908083835b602083101515611f665780518252602082019150602081019050602083039250611f41565b6001836020036101000a038019825116818451168082178552505050505050905001915050602060405180830381855afa158015611fa8573d6000803e3d6000fd5b5050506040513d6020811015611fbd57600080fd5b810190808051906020019092919050505060019004811515611fdb57fe5b0691505b8190509392505050565b60006060600260405190808252806020026020018201604052801561201d5781602001602082028038833980820191505090505b5090508481600081518110151561203057fe5b90602001906020020181815250508381600181518110151561204e57fe5b906020019060200201818152505073__MiMC__________________________________630fa16e3882856040518363ffffffff167c01000000000000000000000000000000000000000000000000000000000281526004018080602001838152602001828103825284818151815260200191508051906020019060200280838360005b838110156120ec5780820151818401526020810190506120d1565b50505050905001935050505060206040518083038186803b15801561211057600080fd5b505af4158015612124573d6000803e3d6000fd5b505050506040513d602081101561213a57600080fd5b81019080805190602001909291905050509150509392505050565b60007f30644e72e131a029b85045b68181585d2833e84879b9709143e1f593f0000001905090565b6101c060405190810160405280600e90602082028038833980820191505090505090565b82600e81019282156121d0579160200282015b828111156121cf5782518255916020019190600101906121b4565b5b5090506121dd9190612252565b5090565b82805482825590600052602060002090810192821561221d579160200282015b8281111561221c578251825591602001919060010190612201565b5b50905061222a9190612252565b5090565b6103a060405190810160405280601d90602082028038833980820191505090505090565b61227491905b80821115612270576000816000905550600101612258565b5090565b9056fea165627a7a72305820fee7427f3127b6f5db9a1867a2dfc795c3a1e3c08e579e19e3cb8ba52b6af0750029",
  "source": "pragma solidity ^0.5.0;\n\nimport \"./utils/MerkleTree.sol\";\nimport \"./utils/Verifier.sol\";\nimport \"./utils/MiMC.sol\";\n\n\ncontract Ledger {\n    \n    using MerkleTree for MerkleTree.Data;\n\n    // Stores the nullifiers for every spent serial number\n    mapping (uint256 => bool) public nullifiers;\n\n    // Stores all of the valid merkle tree roots\n    mapping (uint256 => bool) public roots;\n\n    // verifier key\n    uint256[14] private m_vk;\n    uint256[] private m_gammaABC;\n\n    event TransferHash(uint256 indexed newRecord, bytes32 indexed contentHash);\n\n    MerkleTree.Data internal tree;\n\n    constructor() public {\n        // TODO FIX\n        // adding initial mint record\n        Insert(1);\n    }\n\n    function GetRoot()\n        public view returns (uint256)\n    {\n        return tree.GetRoot();\n    }\n\n    function Insert(uint256 leaf)\n        internal returns (uint256 new_root, uint256 new_offset)\n    {\n        (new_root, new_offset) = tree.Insert(leaf);\n\n        roots[new_root] = true;\n    }\n\n    function IsSpent(uint256 nullifier)\n        public view returns (bool)\n    {\n        return nullifiers[nullifier];\n    }\n\n    function GetExtHash()\n        public view returns (uint256)\n    {\n        return uint256(sha256(\n            abi.encodePacked(\n                address(this),\n                msg.sender\n            ))) % Verifier.ScalarField();\n    }\n\n    function ApproveTransaction(\n        uint256[] memory serialNumbers,\n        uint256[] memory newRecords,\n        bytes32[] memory memo,\n        uint256 in_root,\n        uint256[8] memory in_proof\n    ) public returns(bool) {\n        require(newRecords.length > 0, \"newRecord list should not be empty\");\n        require(newRecords.length == memo.length, \"Length of new records and memo must match\");\n        \n        // TODO\n        // Add check if record is dummy\n        // If dummy then construct an instance for the snark proof\n\n        require(serialNumbers.length > 0, \"serial number should not be empty\");\n        require(roots[in_root], \"Must specify known merkle tree root\");\n\n        for (uint256 i = 0; i < serialNumbers.length; i++) {\n            require( !nullifiers[serialNumbers[i]], \"Cannot double-spend\" );\n            nullifiers[serialNumbers[i]] = true;\n        }\n\n        bool is_valid = VerifyProof(serialNumbers, newRecords, memo, in_root, in_proof);\n\n        require(is_valid, \"Proof invalid!\");\n\n        for (uint256 i = 0; i < newRecords.length; i++) {\n            Insert(newRecords[i]);\n            emit TransferHash(newRecords[i], memo[i]);\n        }\n\n        return true;\n    }\n\n    function VerifyProof(\n        uint256[] memory serialNumbers,\n        uint256[] memory newRecords,\n        bytes32[] memory memo,\n        uint256 in_root,\n        uint256[8] memory proof\n    )\n        public view returns (bool) {\n        // construct public input to the zkSNARK\n        // public parameters: ledger digest st, old record serial numer sn,\n        // new record commitments cm, transaction memorandum, memo\n        uint256[] memory snark_input = new uint256[](1);\n        snark_input[0] = HashPublicInputs(serialNumbers, newRecords, memo, in_root);\n\n        // Retrieve verifying key\n        uint256[14] memory vk;\n        uint256[] memory vk_gammaABC;\n        (vk, vk_gammaABC) = GetVerifyingKey();\n\n        // call the snark verifier function\n        // return Verifier.Verify(vk, vk_gammaABC, proof, snark_input);\n        return true;\n    }\n\n    function HashPublicInputs(\n        uint256[] memory serialNumbers,\n        uint256[] memory newRecords,\n        bytes32[] memory memo,\n        uint256 in_root\n    )\n        public pure returns (uint256) {\n        uint256 length = serialNumbers.length + newRecords.length + memo.length + 1;\n        uint256[] memory inputs_to_hash = new uint256[](length);\n\n        for (uint256 i = 0; i < serialNumbers.length; i++) {\n            inputs_to_hash[i] = serialNumbers[i];            \n        }\n\n        uint256 current_length = serialNumbers.length;\n\n        for (uint256 i = 0; i < newRecords.length; i++) {\n            inputs_to_hash[i + current_length] = newRecords[i];            \n        }\n        \n        current_length = serialNumbers.length + newRecords.length;\n\n        for (uint256 i = 0; i < memo.length; i++) {\n            inputs_to_hash[i + current_length] = uint256(memo[i]);            \n        }\n\n        inputs_to_hash[length - 1] = in_root;\n\n        return MiMC.Hash(inputs_to_hash);\n    }\n\n    function GetVerifyingKey ()\n        public view returns (uint256[14] memory out_vk, uint256[] memory out_gammaABC) {\n            return (m_vk, m_gammaABC);\n    }\n\n    function SetVerifyingKey(uint256[14] memory in_vk, uint256[] memory in_gammaABC)\n        public {\n            m_vk = in_vk;\n            m_gammaABC = in_gammaABC;\n    }\n}\n",
  "sourcePath": "/Users/yoheioka/edcon/zexe-ethereum/solidity/contracts/Ledger.sol",
  "compiler": {
    "name": "solc",
    "version": "0.5.0+commit.1d4f565a.Emscripten.clang"
  },
  "schemaVersion": "3.0.2",
  "updatedAt": "2019-04-09T04:07:09.408Z",
  "devdoc": {
    "methods": {}
  },
  "userdoc": {
    "methods": {}
  }
}