{
  "contractName": "MerkleTree",
  "abi": [
    {
      "constant": true,
      "inputs": [],
      "name": "MAX_LEAF_COUNT",
      "outputs": [
        {
          "name": "",
          "type": "uint256"
        }
      ],
      "payable": false,
      "stateMutability": "view",
      "type": "function",
      "signature": "0x4d52b4c9"
    },
    {
      "constant": true,
      "inputs": [],
      "name": "TREE_DEPTH",
      "outputs": [
        {
          "name": "",
          "type": "uint256"
        }
      ],
      "payable": false,
      "stateMutability": "view",
      "type": "function",
      "signature": "0xf1650536"
    }
  ],
  "bytecode": "0x60d661002f600b82828239805160001a6073146000811461001f57610021565bfe5b5030600052607381538281f3fe73000000000000000000000000000000000000000030146080604052600436106060576000357c0100000000000000000000000000000000000000000000000000000000900463ffffffff1680634d52b4c9146065578063f1650536146081575b600080fd5b606b609d565b6040518082815260200191505060405180910390f35b608760a5565b6040518082815260200191505060405180910390f35b632000000081565b601d8156fea165627a7a723058208d86eb974073631b90d02300009ecd1bf10c2ba8d3b317dde887e97ee8066a040029",
  "source": "pragma solidity ^0.5.0;\n\nimport \"./MiMC.sol\";\n\nlibrary MerkleTree\n{\n    // ceil(log2(1<<29))\n    uint constant public TREE_DEPTH = 29;\n\n\n    // 1<<29 leaves\n    uint constant public MAX_LEAF_COUNT = 536870912;\n\n\n    struct Data\n    {\n        uint cur;\n        mapping (uint256 => bool) roots;\n        uint256[536870912][30] leaves;\n    }\n\n\n    function FillLevelIVs (uint256[29] memory IVs)\n        internal pure\n    {\n        IVs[0] = 149674538925118052205057075966660054952481571156186698930522557832224430770;\n        IVs[1] = 9670701465464311903249220692483401938888498641874948577387207195814981706974;\n        IVs[2] = 18318710344500308168304415114839554107298291987930233567781901093928276468271;\n        IVs[3] = 6597209388525824933845812104623007130464197923269180086306970975123437805179;\n        IVs[4] = 21720956803147356712695575768577036859892220417043839172295094119877855004262;\n        IVs[5] = 10330261616520855230513677034606076056972336573153777401182178891807369896722;\n        IVs[6] = 17466547730316258748333298168566143799241073466140136663575045164199607937939;\n        IVs[7] = 18881017304615283094648494495339883533502299318365959655029893746755475886610;\n        IVs[8] = 21580915712563378725413940003372103925756594604076607277692074507345076595494;\n        IVs[9] = 12316305934357579015754723412431647910012873427291630993042374701002287130550;\n        IVs[10] = 18905410889238873726515380969411495891004493295170115920825550288019118582494;\n        IVs[11] = 12819107342879320352602391015489840916114959026915005817918724958237245903353;\n        IVs[12] = 8245796392944118634696709403074300923517437202166861682117022548371601758802;\n        IVs[13] = 16953062784314687781686527153155644849196472783922227794465158787843281909585;\n        IVs[14] = 19346880451250915556764413197424554385509847473349107460608536657852472800734;\n        IVs[15] = 14486794857958402714787584825989957493343996287314210390323617462452254101347;\n        IVs[16] = 11127491343750635061768291849689189917973916562037173191089384809465548650641;\n        IVs[17] = 12217916643258751952878742936579902345100885664187835381214622522318889050675;\n        IVs[18] = 722025110834410790007814375535296040832778338853544117497481480537806506496;\n        IVs[19] = 15115624438829798766134408951193645901537753720219896384705782209102859383951;\n        IVs[20] = 11495230981884427516908372448237146604382590904456048258839160861769955046544;\n        IVs[21] = 16867999085723044773810250829569850875786210932876177117428755424200948460050;\n        IVs[22] = 1884116508014449609846749684134533293456072152192763829918284704109129550542;\n        IVs[23] = 14643335163846663204197941112945447472862168442334003800621296569318670799451;\n        IVs[24] = 1933387276732345916104540506251808516402995586485132246682941535467305930334;\n        IVs[25] = 7286414555941977227951257572976885370489143210539802284740420664558593616067;\n        IVs[26] = 16932161189449419608528042274282099409408565503929504242784173714823499212410;\n        IVs[27] = 16562533130736679030886586765487416082772837813468081467237161865787494093536;\n        IVs[28] = 6037428193077828806710267464232314380014232668931818917272972397574634037180;\n    }\n\n\n    function HashImpl (uint256 left, uint256 right, uint256 IV)\n        internal pure returns (uint256)\n    {\n        uint256[] memory x = new uint256[](2);\n        x[0] = left;\n        x[1] = right;\n\n        return MiMC.Hash(x, IV);\n    }\n\n\n    function Insert(Data storage self, uint256 leaf)\n        internal returns (uint256, uint256)\n    {\n        require( leaf != 0 );\n\n        uint256[29] memory IVs;\n        FillLevelIVs(IVs);\n\n        uint256 offset = self.cur;\n\n        require (offset != MAX_LEAF_COUNT - 1);\n\n        self.leaves[0][offset] = leaf;\n\n        uint256 new_root = UpdateTree(self, IVs);\n\n        self.cur = offset + 1;\n   \n        return (new_root, offset);\n    }\n\n\n    /**\n    * Returns calculated merkle root\n    */\n    function VerifyPath(uint256 leaf, uint256[29] memory in_path, bool[29] memory address_bits)\n        internal pure returns (uint256)\n    {\n        uint256[29] memory IVs;\n        FillLevelIVs(IVs);\n\n        uint256 item = leaf;\n\n        for (uint depth = 0; depth < TREE_DEPTH; depth++)\n        {\n            if (address_bits[depth]) {\n                item = HashImpl(in_path[depth], item, IVs[depth]);\n            } else {\n                item = HashImpl(item, in_path[depth], IVs[depth]);\n            }\n        }\n\n        return item;\n    }\n\n\n    function VerifyPath(Data storage self, uint256 leaf, uint256[29] memory in_path, bool[29] memory address_bits)\n        internal view returns (bool)\n    {\n        return VerifyPath(leaf, in_path, address_bits) == GetRoot(self);\n    }\n\n\n    function GetLeaf(Data storage self, uint depth, uint offset)\n        internal view returns (uint256)\n    {\n        return GetUniqueLeaf(depth, offset, self.leaves[depth][offset]);\n    }\n\n\n    function GetProof(Data storage self, uint index)\n        internal view returns (uint256[29] memory, bool[29] memory)\n    {\n        bool[29] memory address_bits;\n\n        uint256[29] memory proof_path;\n\n        for (uint depth=0; depth < TREE_DEPTH; depth++)\n        {\n            address_bits[depth] = index % 2 == 0 ? false : true;\n\n            if (index%2 == 0) {\n                proof_path[depth] = GetLeaf(self, depth, index + 1);\n            } else {\n                proof_path[depth] = GetLeaf(self, depth, index - 1);\n            }\n\n            index = uint(index / 2);\n        }\n\n        return(proof_path, address_bits);\n    }\n\n\n    function GetUniqueLeaf(uint256 depth, uint256 offset, uint256 leaf)\n        internal pure returns (uint256)\n    {\n        if (leaf == 0x0)\n        {\n            leaf = uint256(\n                sha256(\n                    abi.encodePacked(\n                        uint16(depth),\n                        uint240(offset)))) % MiMC.GetScalarField();\n        }\n\n        return leaf;\n    }\n\n\n    function UpdateTree(Data storage self, uint256[29] memory IVs)\n        internal returns(uint256 root)\n    {\n        uint CurrentIndex = self.cur;\n\n        uint256 leaf1;\n\n        uint256 leaf2;\n\n        for (uint depth=0; depth < TREE_DEPTH; depth++)\n        {\n            uint NextIndex = uint(CurrentIndex/2);\n\n            if (CurrentIndex%2 == 0)\n            {\n                leaf1 = self.leaves[depth][CurrentIndex];\n\n                leaf2 = GetUniqueLeaf(depth, CurrentIndex + 1, self.leaves[depth][CurrentIndex + 1]);\n            } else\n            {\n                leaf1 = GetUniqueLeaf(depth, CurrentIndex - 1, self.leaves[depth][CurrentIndex - 1]);\n\n                leaf2 = self.leaves[depth][CurrentIndex];\n            }\n\n            self.leaves[depth+1][NextIndex] = HashImpl(leaf1, leaf2, IVs[depth]);\n\n            CurrentIndex = NextIndex;\n        }\n\n        return self.leaves[TREE_DEPTH][0];\n    }\n\n\n    function GetRoot (Data storage self)\n        internal view returns(uint256)\n    {\n        return self.leaves[TREE_DEPTH][0];\n    }\n}\n",
  "sourcePath": "/Users/yoheioka/edcon/zexe-ethereum/solidity/contracts/utils/MerkleTree.sol",
  "compiler": {
    "name": "solc",
    "version": "0.5.0+commit.1d4f565a.Emscripten.clang"
  },
  "schemaVersion": "3.0.2",
  "updatedAt": "2019-04-09T04:07:09.422Z",
  "devdoc": {
    "methods": {}
  },
  "userdoc": {
    "methods": {}
  }
}