{
  "contractName": "Verifier",
  "abi": [
    {
      "constant": true,
      "inputs": [],
      "name": "ScalarField",
      "outputs": [
        {
          "name": "",
          "type": "uint256"
        }
      ],
      "payable": false,
      "stateMutability": "pure",
      "type": "function",
      "signature": "0xdaad1e63"
    }
  ],
  "bytecode": "0x60cb61002f600b82828239805160001a6073146000811461001f57610021565bfe5b5030600052607381538281f3fe73000000000000000000000000000000000000000030146080604052600436106056576000357c0100000000000000000000000000000000000000000000000000000000900463ffffffff168063daad1e6314605b575b600080fd5b60616077565b6040518082815260200191505060405180910390f35b60007f30644e72e131a029b85045b68181585d2833e84879b9709143e1f593f000000190509056fea165627a7a7230582065f966112417d1c621f9cd49c2d901a054e79dc1c928b126fd75a710bf420b970029",
  "source": "// this code is taken from https://github.com/JacobEberhardt/ZoKrates \n\npragma solidity ^0.5.0;\n\nimport \"./Pairing.sol\";\n\nlibrary Verifier\n{\n    using Pairing for Pairing.G1Point;\n    using Pairing for Pairing.G2Point;\n\n    function ScalarField ()\n        public pure returns (uint256)\n    {\n        return 21888242871839275222246405745257275088548364400416034343698204186575808495617;\n    }\n\n    struct VerifyingKey\n    {\n        Pairing.G1Point alpha;\n        Pairing.G2Point beta;\n        Pairing.G2Point gamma;\n        Pairing.G2Point delta;\n        Pairing.G1Point[] gammaABC;\n    }\n\n    struct Proof\n    {\n        Pairing.G1Point A;\n        Pairing.G2Point B;\n        Pairing.G1Point C;\n    }\n\n    struct ProofWithInput\n    {\n        Proof proof;\n        uint256[] input;\n    }\n\n\n    function NegateY( uint256 Y )\n        internal pure returns (uint256)\n    {\n        uint q = 21888242871839275222246405745257275088696311157297823662689037894645226208583;\n        return q - (Y % q);\n    }\n\n\n    /*\n    * This implements the Solidity equivalent of the following Python code:\n        from py_ecc.bn128 import *\n        data = # ... arguments to function [in_vk, vk_gammaABC, in_proof, proof_inputs]\n        vk = [int(_, 16) for _ in data[0]]\n        ic = [FQ(int(_, 16)) for _ in data[1]]\n        proof = [int(_, 16) for _ in data[2]]\n        inputs = [int(_, 16) for _ in data[3]]\n        it = iter(ic)\n        ic = [(_, next(it)) for _ in it]\n        vk_alpha = [FQ(_) for _ in vk[:2]]\n        vk_beta = (FQ2(vk[2:4][::-1]), FQ2(vk[4:6][::-1]))\n        vk_gamma = (FQ2(vk[6:8][::-1]), FQ2(vk[8:10][::-1]))\n        vk_delta = (FQ2(vk[10:12][::-1]), FQ2(vk[12:14][::-1]))\n        assert is_on_curve(vk_alpha, b)\n        assert is_on_curve(vk_beta, b2)\n        assert is_on_curve(vk_gamma, b2)\n        assert is_on_curve(vk_delta, b2)\n        proof_A = [FQ(_) for _ in proof[:2]]\n        proof_B = (FQ2(proof[2:4][::-1]), FQ2(proof[4:-2][::-1]))\n        proof_C = [FQ(_) for _ in proof[-2:]]\n        assert is_on_curve(proof_A, b)\n        assert is_on_curve(proof_B, b2)\n        assert is_on_curve(proof_C, b)\n        vk_x = ic[0]\n        for i, s in enumerate(inputs):\n            vk_x = add(vk_x, multiply(ic[i + 1], s))\n        check_1 = pairing(proof_B, proof_A)\n        check_2 = pairing(vk_beta, neg(vk_alpha))\n        check_3 = pairing(vk_gamma, neg(vk_x))\n        check_4 = pairing(vk_delta, neg(proof_C))\n        ok = check_1 * check_2 * check_3 * check_4\n        assert ok == FQ12.one()\n    */\n    function Verify ( uint256[14] memory in_vk, uint256[] memory vk_gammaABC, uint256[8] memory in_proof, uint256[] memory proof_inputs )\n        internal view returns (bool)\n    {\n        require( ((vk_gammaABC.length / 2) - 1) == proof_inputs.length );\n\n        // Compute the linear combination vk_x\n        uint256[3] memory mul_input;\n        uint256[4] memory add_input;\n        bool success;\n        uint m = 2;\n\n        // First two fields are used as the sum\n        add_input[0] = vk_gammaABC[0];\n        add_input[1] = vk_gammaABC[1];\n\n        // Performs a sum of gammaABC[0] + sum[ gammaABC[i+1]^proof_inputs[i] ]\n        for (uint i = 0; i < proof_inputs.length; i++) {\n            mul_input[0] = vk_gammaABC[m++];\n            mul_input[1] = vk_gammaABC[m++];\n            mul_input[2] = proof_inputs[i];\n\n            assembly {\n                // ECMUL, output to last 2 elements of `add_input`\n                success := staticcall(sub(gas, 2000), 7, mul_input, 0x80, add(add_input, 0x40), 0x60)\n            }\n            require( success );\n\n            assembly {\n                // ECADD\n                success := staticcall(sub(gas, 2000), 6, add_input, 0xc0, add_input, 0x60)\n            }\n            require( success );\n        }\n\n        uint[24] memory input = [\n            // (proof.A, proof.B)\n            in_proof[0], in_proof[1],                           // proof.A   (G1)\n            in_proof[2], in_proof[3], in_proof[4], in_proof[5], // proof.B   (G2)\n\n            // (-vk.alpha, vk.beta)\n            in_vk[0], NegateY(in_vk[1]),                        // -vk.alpha (G1)\n            in_vk[2], in_vk[3], in_vk[4], in_vk[5],             // vk.beta   (G2)\n\n            // (-vk_x, vk.gamma)\n            add_input[0], NegateY(add_input[1]),                // -vk_x     (G1)\n            in_vk[6], in_vk[7], in_vk[8], in_vk[9],             // vk.gamma  (G2)\n\n            // (-proof.C, vk.delta)\n            in_proof[6], NegateY(in_proof[7]),                  // -proof.C  (G1)\n            in_vk[10], in_vk[11], in_vk[12], in_vk[13]          // vk.delta  (G2)\n        ];\n\n        uint[1] memory out;\n        assembly {\n            success := staticcall(sub(gas, 2000), 8, input, 768, out, 0x20)\n        }\n        require(success);\n        return out[0] != 0;\n    }\n\n\n    function Verify (VerifyingKey memory vk, ProofWithInput memory pwi)\n        internal view returns (bool)\n    {\n        return Verify(vk, pwi.proof, pwi.input);\n    }\n\n\n    function Verify (VerifyingKey memory vk, Proof memory proof, uint256[] memory input)\n        internal view returns (bool)\n    {\n        require(input.length + 1 == vk.gammaABC.length);\n\n        // Compute the linear combination vk_x\n        Pairing.G1Point memory vk_x = vk.gammaABC[0];\n        for (uint i = 0; i < input.length; i++)\n            vk_x = Pairing.pointAdd(vk_x, Pairing.pointMul(vk.gammaABC[i + 1], input[i]));\n\n        // Verify proof\n        return Pairing.pairingProd4(\n            proof.A, proof.B,\n            vk_x.negate(), vk.gamma,\n            proof.C.negate(), vk.delta,\n            vk.alpha.negate(), vk.beta);\n    }\n}\n",
  "sourcePath": "/Users/yoheioka/edcon/zexe-ethereum/solidity/contracts/utils/Verifier.sol",
  "compiler": {
    "name": "solc",
    "version": "0.5.0+commit.1d4f565a.Emscripten.clang"
  },
  "schemaVersion": "3.0.2",
  "updatedAt": "2019-04-09T04:07:09.400Z",
  "devdoc": {
    "methods": {}
  },
  "userdoc": {
    "methods": {}
  }
}